{
  "contractName": "Marketplace",
  "abi": [
    {
      "anonymous": false,
      "inputs": [
        {
          "indexed": false,
          "internalType": "uint256",
          "name": "id",
          "type": "uint256"
        },
        {
          "indexed": false,
          "internalType": "uint256",
          "name": "status",
          "type": "uint256"
        }
      ],
      "name": "OrderStatusUpdated",
      "type": "event"
    },
    {
      "anonymous": false,
      "inputs": [
        {
          "indexed": false,
          "internalType": "uint256",
          "name": "id",
          "type": "uint256"
        },
        {
          "indexed": false,
          "internalType": "string",
          "name": "name",
          "type": "string"
        },
        {
          "indexed": false,
          "internalType": "string",
          "name": "image",
          "type": "string"
        },
        {
          "indexed": false,
          "internalType": "uint256",
          "name": "price",
          "type": "uint256"
        }
      ],
      "name": "ProductAdded",
      "type": "event"
    },
    {
      "anonymous": false,
      "inputs": [
        {
          "indexed": false,
          "internalType": "uint256",
          "name": "id",
          "type": "uint256"
        },
        {
          "indexed": false,
          "internalType": "address",
          "name": "buyer",
          "type": "address"
        }
      ],
      "name": "ProductPurchased",
      "type": "event"
    },
    {
      "inputs": [],
      "name": "productCount",
      "outputs": [
        {
          "internalType": "uint256",
          "name": "",
          "type": "uint256"
        }
      ],
      "stateMutability": "view",
      "type": "function",
      "constant": true
    },
    {
      "inputs": [
        {
          "internalType": "uint256",
          "name": "",
          "type": "uint256"
        }
      ],
      "name": "products",
      "outputs": [
        {
          "internalType": "uint256",
          "name": "id",
          "type": "uint256"
        },
        {
          "internalType": "string",
          "name": "name",
          "type": "string"
        },
        {
          "internalType": "string",
          "name": "image",
          "type": "string"
        },
        {
          "internalType": "uint256",
          "name": "price",
          "type": "uint256"
        },
        {
          "internalType": "bool",
          "name": "isSold",
          "type": "bool"
        },
        {
          "internalType": "uint256",
          "name": "orderStatus",
          "type": "uint256"
        },
        {
          "internalType": "address",
          "name": "buyer",
          "type": "address"
        }
      ],
      "stateMutability": "view",
      "type": "function",
      "constant": true
    },
    {
      "inputs": [
        {
          "internalType": "string",
          "name": "_name",
          "type": "string"
        },
        {
          "internalType": "string",
          "name": "_image",
          "type": "string"
        },
        {
          "internalType": "uint256",
          "name": "_price",
          "type": "uint256"
        }
      ],
      "name": "addProduct",
      "outputs": [],
      "stateMutability": "nonpayable",
      "type": "function"
    },
    {
      "inputs": [
        {
          "internalType": "uint256",
          "name": "_id",
          "type": "uint256"
        }
      ],
      "name": "purchaseProduct",
      "outputs": [],
      "stateMutability": "payable",
      "type": "function",
      "payable": true
    },
    {
      "inputs": [
        {
          "internalType": "uint256",
          "name": "_id",
          "type": "uint256"
        },
        {
          "internalType": "uint256",
          "name": "_status",
          "type": "uint256"
        }
      ],
      "name": "updateOrderStatus",
      "outputs": [],
      "stateMutability": "nonpayable",
      "type": "function"
    },
    {
      "inputs": [
        {
          "internalType": "uint256",
          "name": "_id",
          "type": "uint256"
        }
      ],
      "name": "getOrderInfo",
      "outputs": [
        {
          "internalType": "uint256",
          "name": "",
          "type": "uint256"
        },
        {
          "internalType": "string",
          "name": "",
          "type": "string"
        },
        {
          "internalType": "string",
          "name": "",
          "type": "string"
        },
        {
          "internalType": "uint256",
          "name": "",
          "type": "uint256"
        },
        {
          "internalType": "bool",
          "name": "",
          "type": "bool"
        },
        {
          "internalType": "uint256",
          "name": "",
          "type": "uint256"
        },
        {
          "internalType": "address",
          "name": "",
          "type": "address"
        }
      ],
      "stateMutability": "view",
      "type": "function",
      "constant": true
    }
  ],
  "bytecode": "0x6080604052600060015534801561001557600080fd5b506111ce806100256000396000f3fe6080604052600436106100555760003560e01c806338e76a031461005a57806375435da0146100765780637acc0b201461009f578063d311636b146100e2578063e0f6ef8714610125578063f28ea1c114610150575b600080fd5b610074600480360381019061006f9190610b79565b610179565b005b34801561008257600080fd5b5061009d60048036038101906100989190610ba2565b610316565b005b3480156100ab57600080fd5b506100c660048036038101906100c19190610b79565b610466565b6040516100d99796959493929190610ebb565b60405180910390f35b3480156100ee57600080fd5b5061010960048036038101906101049190610b79565b6105e5565b60405161011c9796959493929190610ebb565b60405180910390f35b34801561013157600080fd5b5061013a610852565b6040516101479190610e24565b60405180910390f35b34801561015c57600080fd5b5061017760048036038101906101729190610afa565b610858565b005b600080600083815260200190815260200160002090506000821180156101a157506001548211155b6101e0576040517f08c379a00000000000000000000000000000000000000000000000000000000081526004016101d790610e04565b60405180910390fd5b8060030154341015610227576040517f08c379a000000000000000000000000000000000000000000000000000000000815260040161021e90610de4565b60405180910390fd5b8060040160009054906101000a900460ff1615610279576040517f08c379a000000000000000000000000000000000000000000000000000000000815260040161027090610da4565b60405180910390fd5b60018160040160006101000a81548160ff021916908315150217905550338160060160006101000a81548173ffffffffffffffffffffffffffffffffffffffff021916908373ffffffffffffffffffffffffffffffffffffffff1602179055507f9ad4ecfaf27ea0cbeebee0ed92fe15c8a84975f1e3d45ccfc526d7751dcf98ff823360405161030a929190610e3f565b60405180910390a15050565b60008211801561032857506001548211155b610367576040517f08c379a000000000000000000000000000000000000000000000000000000000815260040161035e90610e04565b60405180910390fd5b60008110158015610379575060028111155b6103b8576040517f08c379a00000000000000000000000000000000000000000000000000000000081526004016103af90610dc4565b60405180910390fd5b600080600084815260200190815260200160002090508060040160009054906101000a900460ff1661041f576040517f08c379a000000000000000000000000000000000000000000000000000000000815260040161041690610d84565b60405180910390fd5b8181600501819055507f354dacc29fd10a42c38a01db1e9b2a3abc1be649cbf51eab478d6644eb8518b58383604051610459929190610f38565b60405180910390a1505050565b600060205280600052604060002060009150905080600001549080600101805461048f90611068565b80601f01602080910402602001604051908101604052809291908181526020018280546104bb90611068565b80156105085780601f106104dd57610100808354040283529160200191610508565b820191906000526020600020905b8154815290600101906020018083116104eb57829003601f168201915b50505050509080600201805461051d90611068565b80601f016020809104026020016040519081016040528092919081815260200182805461054990611068565b80156105965780601f1061056b57610100808354040283529160200191610596565b820191906000526020600020905b81548152906001019060200180831161057957829003601f168201915b5050505050908060030154908060040160009054906101000a900460ff16908060050154908060060160009054906101000a900473ffffffffffffffffffffffffffffffffffffffff16905087565b600060608060008060008060008811801561060257506001548811155b610641576040517f08c379a000000000000000000000000000000000000000000000000000000000815260040161063890610e04565b60405180910390fd5b60008060008a81526020019081526020016000206040518060e00160405290816000820154815260200160018201805461067a90611068565b80601f01602080910402602001604051908101604052809291908181526020018280546106a690611068565b80156106f35780601f106106c8576101008083540402835291602001916106f3565b820191906000526020600020905b8154815290600101906020018083116106d657829003601f168201915b5050505050815260200160028201805461070c90611068565b80601f016020809104026020016040519081016040528092919081815260200182805461073890611068565b80156107855780601f1061075a57610100808354040283529160200191610785565b820191906000526020600020905b81548152906001019060200180831161076857829003601f168201915b50505050508152602001600382015481526020016004820160009054906101000a900460ff16151515158152602001600582015481526020016006820160009054906101000a900473ffffffffffffffffffffffffffffffffffffffff1673ffffffffffffffffffffffffffffffffffffffff1673ffffffffffffffffffffffffffffffffffffffff16815250509050806000015181602001518260400151836060015184608001518560a001518660c00151975097509750975097509750975050919395979092949650565b60015481565b6001600081548092919061086b9061109a565b91905055506040518060e00160405280600154815260200184815260200183815260200182815260200160001515815260200160008152602001600073ffffffffffffffffffffffffffffffffffffffff1681525060008060015481526020019081526020016000206000820151816000015560208201518160010190805190602001906108fa9291906109da565b5060408201518160020190805190602001906109179291906109da565b506060820151816003015560808201518160040160006101000a81548160ff02191690831515021790555060a0820151816005015560c08201518160060160006101000a81548173ffffffffffffffffffffffffffffffffffffffff021916908373ffffffffffffffffffffffffffffffffffffffff1602179055509050507f7a092309290915a35151881d9282456b222c739a7d845acd25a6c13b75d62f136001548484846040516109cd9493929190610e68565b60405180910390a1505050565b8280546109e690611068565b90600052602060002090601f016020900481019282610a085760008555610a4f565b82601f10610a2157805160ff1916838001178555610a4f565b82800160010185558215610a4f579182015b82811115610a4e578251825591602001919060010190610a33565b5b509050610a5c9190610a60565b5090565b5b80821115610a79576000816000905550600101610a61565b5090565b6000610a90610a8b84610f92565b610f61565b905082815260208101848484011115610aa857600080fd5b610ab3848285611026565b509392505050565b600082601f830112610acc57600080fd5b8135610adc848260208601610a7d565b91505092915050565b600081359050610af481611181565b92915050565b600080600060608486031215610b0f57600080fd5b600084013567ffffffffffffffff811115610b2957600080fd5b610b3586828701610abb565b935050602084013567ffffffffffffffff811115610b5257600080fd5b610b5e86828701610abb565b9250506040610b6f86828701610ae5565b9150509250925092565b600060208284031215610b8b57600080fd5b6000610b9984828501610ae5565b91505092915050565b60008060408385031215610bb557600080fd5b6000610bc385828601610ae5565b9250506020610bd485828601610ae5565b9150509250929050565b610be781610fde565b82525050565b610bf681610ff0565b82525050565b6000610c0782610fc2565b610c118185610fcd565b9350610c21818560208601611035565b610c2a81611170565b840191505092915050565b6000610c42601483610fcd565b91507f50726f64756374206e6f742079657420736f6c640000000000000000000000006000830152602082019050919050565b6000610c82601483610fcd565b91507f50726f6475637420616c726561647920736f6c640000000000000000000000006000830152602082019050919050565b6000610cc2600e83610fcd565b91507f496e76616c6964207374617475730000000000000000000000000000000000006000830152602082019050919050565b6000610d02601283610fcd565b91507f496e73756666696369656e742066756e647300000000000000000000000000006000830152602082019050919050565b6000610d42601283610fcd565b91507f496e76616c69642070726f6475637420494400000000000000000000000000006000830152602082019050919050565b610d7e8161101c565b82525050565b60006020820190508181036000830152610d9d81610c35565b9050919050565b60006020820190508181036000830152610dbd81610c75565b9050919050565b60006020820190508181036000830152610ddd81610cb5565b9050919050565b60006020820190508181036000830152610dfd81610cf5565b9050919050565b60006020820190508181036000830152610e1d81610d35565b9050919050565b6000602082019050610e396000830184610d75565b92915050565b6000604082019050610e546000830185610d75565b610e616020830184610bde565b9392505050565b6000608082019050610e7d6000830187610d75565b8181036020830152610e8f8186610bfc565b90508181036040830152610ea38185610bfc565b9050610eb26060830184610d75565b95945050505050565b600060e082019050610ed0600083018a610d75565b8181036020830152610ee28189610bfc565b90508181036040830152610ef68188610bfc565b9050610f056060830187610d75565b610f126080830186610bed565b610f1f60a0830185610d75565b610f2c60c0830184610bde565b98975050505050505050565b6000604082019050610f4d6000830185610d75565b610f5a6020830184610d75565b9392505050565b6000604051905081810181811067ffffffffffffffff82111715610f8857610f87611141565b5b8060405250919050565b600067ffffffffffffffff821115610fad57610fac611141565b5b601f19601f8301169050602081019050919050565b600081519050919050565b600082825260208201905092915050565b6000610fe982610ffc565b9050919050565b60008115159050919050565b600073ffffffffffffffffffffffffffffffffffffffff82169050919050565b6000819050919050565b82818337600083830152505050565b60005b83811015611053578082015181840152602081019050611038565b83811115611062576000848401525b50505050565b6000600282049050600182168061108057607f821691505b6020821081141561109457611093611112565b5b50919050565b60006110a58261101c565b91507fffffffffffffffffffffffffffffffffffffffffffffffffffffffffffffffff8214156110d8576110d76110e3565b5b600182019050919050565b7f4e487b7100000000000000000000000000000000000000000000000000000000600052601160045260246000fd5b7f4e487b7100000000000000000000000000000000000000000000000000000000600052602260045260246000fd5b7f4e487b7100000000000000000000000000000000000000000000000000000000600052604160045260246000fd5b6000601f19601f8301169050919050565b61118a8161101c565b811461119557600080fd5b5056fea26469706673582212209c31b9c92d2ccf442dda75556753659ef5b29d076cae155335f32bd141b2f6bb64736f6c63430008000033",
  "immutableReferences": {},
  "source": "// SPDX-License-Identifier: MIT\r\npragma solidity ^0.8.0;\r\n\r\ncontract Marketplace {\r\n    struct Product {\r\n        uint id;\r\n        string name;\r\n        string image;\r\n        uint price;\r\n        bool isSold;\r\n        uint orderStatus; // 0: , 1: , 2: \r\n        address buyer; // \r\n    }\r\n\r\n   \r\n    mapping(uint => Product) public products;\r\n\r\n \r\n    uint public productCount = 0;\r\n    event ProductAdded(uint id, string name, string image, uint price);\r\n    event ProductPurchased(uint id, address buyer);\r\n    event OrderStatusUpdated(uint id, uint status);\r\n\r\n    // \r\n    function addProduct(string memory _name, string memory _image, uint _price) public {\r\n        productCount++;\r\n        products[productCount] = Product(productCount, _name, _image, _price, false, 0, address(0));\r\n        emit ProductAdded(productCount, _name, _image, _price);\r\n    }\r\n\r\n    // \r\n    function purchaseProduct(uint _id) public payable {\r\n        Product storage product = products[_id];\r\n        require(_id > 0 && _id <= productCount, \"Invalid product ID\");\r\n        require(msg.value >= product.price, \"Insufficient funds\");\r\n        require(!product.isSold, \"Product already sold\");\r\n\r\n        product.isSold = true;\r\n        product.buyer = msg.sender;\r\n\r\n        emit ProductPurchased(_id, msg.sender);\r\n    }\r\n\r\n    // \r\n    function updateOrderStatus(uint _id, uint _status) public {\r\n        require(_id > 0 && _id <= productCount, \"Invalid product ID\");\r\n        require(_status >= 0 && _status <= 2, \"Invalid status\");\r\n\r\n        Product storage product = products[_id];\r\n        require(product.isSold, \"Product not yet sold\");\r\n\r\n        product.orderStatus = _status;\r\n\r\n        emit OrderStatusUpdated(_id, _status);\r\n    }\r\n\r\n    // \r\n    function getOrderInfo(uint _id) public view returns (uint, string memory, string memory, uint, bool, uint, address) {\r\n        require(_id > 0 && _id <= productCount, \"Invalid product ID\");\r\n\r\n        Product memory product = products[_id];\r\n        return (product.id, product.name, product.image, product.price, product.isSold, product.orderStatus, product.buyer);\r\n    }\r\n}\r\n",
  "sourcePath": "C:\\Users\\19612\\Desktop\\FinalTestFile\\contracts\\Marketplace.sol",
  "compiler": {
    "name": "solc",
    "version": "0.8.0+commit.c7dfd78e.Emscripten.clang"
  },
  "schemaVersion": "3.4.11",
  "updatedAt": "2024-08-19T08:52:03.879Z",
  "networkType": "ethereum",
  "devdoc": {
    "kind": "dev",
    "methods": {},
    "version": 1
  },
  "userdoc": {
    "kind": "user",
    "methods": {},
    "version": 1
  }
}